S01500006472756D53657175656E6365722E73726563AC
S113000033C000004CC000004AC0000048C00000DB
S113001046C0000044C0000042C0000040C00000D0
S11300203EC000003CC000003AC0000066C00000B2
S113003036C0000034C0000032C0000030C00000F0
S11300402EC000002CC000002AC0000028C0000000
S113005026C0000024C0000022C0000020C0000010
S11300601EC000001CC0000011241FBECFEFD8E04A
S1130070DEBFCDBF11E0A0E0B1E0EAE4F3E002C0EE
S113008005900D92A430B107D9F721E0A4E0B1E0C6
S113009001C01D92A930B207E1F7CDD054C1B0CF51
S11300A09B01220F331F620F731F3B9A28B1277FD6
S11300B038B138604FB7F89461157105B1F0FC019F
S11300C0680F791F919188E038B9000000C097FF4C
S11300D028B9990F000000C000C000C028B900C0B2
S11300E08A9591F7E617F70769F74FBF87EC90E019
S11300F00197F1F700C0000008951F920F920FB608
S11301000F921124CF92DF92EF92FF920F932F93CD
S11301103F934F935F936F937F938F939F93AF938B
S1130120BF93CF93DF93EF93FF93C0900401D090DC
S11301300501E12CF12C209102013091030140E0F2
S113014050E060EC74ED81E090E0BFD0CA01B901E9
S113015000910001202F30E040E050E0B6D0C7010C
S1130160B601B3D0672B682B692BE9F42091080101
S113017080910101281710F42F5F01C020E0209323
S1130180080138B1809106019091070102C096954B
S113019087952A95E2F78170832B88B980E29EE4E3
S11301A00197F1F718B8C0910401D09105016E01CF
S11301B0E12CF12C209102013091030140E050E048
S11301C060EC74ED81E090E080D0C216D306E406C2
S11301D0F50631F4299A109205011092040113C016
S11301E0C436D10559F429988091040190910501F0
S11301F00196909305018093040105C02196D09344
S11302000501C0930401FF91EF91DF91CF91BF915C
S1130210AF919F918F917F916F915F914F913F919A
S11302202F910F91FF90EF90DF90CF900F900FBE22
S11302300F901F901895CF93DF93CDB7DEB76897D3
S11302400FB6F894DEBF0FBECDBF84B1876384B907
S1130250E0E8F0E0808180618083E1E8F0E0808183
S11302608A608083EFE6F0E080818260808387B1DA
S11302708F6387B987EE93E0909389008093880019
S113028083E190E090930701809306011C821D8214
S11302901E821F828FEF888719861A861B861C860A
S11302A01D868E871F86188A898B1A8A1B8A8C8BD7
S11302B01D8A1E8A8F8B188E198E8A8F1B8E68E07A
S11302C070E0CE010196ECDEFFCF052E97FB16F40D
S11302D000940FD057FD05D014D007FC02D046F48B
S11302E008C050954095309521953F4F4F4F5F4F33
S11302F0089590958095709561957F4F8F4F9F4F8E
S11303000895A1E21A2EAA1BBB1BFD010DC0AA1F52
S1130310BB1FEE1FFF1FA217B307E407F50720F06A
S1130320A21BB30BE40BF50B661F771F881F991FE5
S11303301A9469F760957095809590959B01AC012E
S10D0340BD01CF010895F894FFCF2A
S107034A0407780028
S9030000FC
