:100000000C9434000C9449000C9449000C94490061
:100010000C9449000C9449000C9449000C9449003C
:100020000C9449000C9449000C9449000C9449002C
:100030000C9449000C9449000C9449000C9449001C
:100040000C9449000C9449000C9449000C9449000C
:100050000C9449000C9449000C9449000C944900FC
:100060000C9449000C94490011241FBECFEFD8E036
:10007000DEBFCDBF11E0A0E0B1E0E8E2F1E002C0F8
:1000800005900D92A030B107D9F70E9475000C942D
:1000900092000C940000EAE7F0E0808187608083A2
:1000A000ACE7B0E08C9180648C9380818068808321
:1000B0008081806480830895109279001092780086
:1000C000ECE7F0E09081907F90839081892B808392
:1000D000EAE7F0E0808180648083808186FDFDCF47
:1000E00080917800909179000895239A539A259AE7
:1000F000E0EBF0E08081816A8083E1EBF0E08081D9
:10010000846080830E944B00C4EBD0E081E00E94B9
:100110005C0099230CF403969595879595958795A2
:080120008883F4CFF894FFCFAF
:00000001FF
